:100000000C9463000C948B000C948B000C948B006C
:100010000C948B000C948B000C948B000C948B0034
:100020000C948B000C948B000C948B000C948B0024
:100030000C948B000C948B000C948B000C948B0014
:100040000C94B0060C948B000C9434010C94860133
:100050000C948B000C948B000C948B000C948B00F4
:100060000C948B000C948B000000000024002700EF
:100070002A0000000000250028002B0000000000DE
:1000800023002600290004040404040404040202DA
:100090000202020203030303030301020408102007
:1000A0004080010204081020010204081020000012
:1000B0000007000201000003040600000000000029
:1000C00000008D00F50211241FBECFEFD8E0DEBF87
:1000D000CDBF11E0A0E0B1E0ECE1F5E102C0059098
:1000E0000D92AE35B107D9F712E0AEE5B1E001C02F
:1000F0001D92AA32B107E1F710E0C6ECD0E004C0CF
:100100002297FE010E94880AC23CD107C9F70E94CB
:1001100024010C948C0A0C9400008EE591E06AE0B6
:100120000E94C403089585E060E00E94D50782E044
:1001300090E00E94510785E061E00E94D5078AE0C7
:1001400090E00E94510785E060E00E94D50786E0BC
:1001500061E020E432E44FE050E00E94290822E010
:1001600030E040E050E00E94570ACA01B9010E9405
:1001700077092DEC3CEC48EE51E40E94DC080E942B
:1001800044099B01AC01CA010895EF92FF920F93BD
:100190000E94930020916F012F5F20936F01609365
:1001A00070012AE030E040E050E00E94030A7093C2
:1001B0007101609372018EE591E04FEF50E060E0D5
:1001C00070E020E008E03FE6E32E31E0F32E0E94ED
:1001D000030664E670E080E090E00E94F8060F916C
:1001E000FF90EF9008958FEF91E040E052EC61E0D6
:1001F00070E00E94C10185E061E00E94960786E000
:1002000060E00E9496078EE591E06CE00E949F06F8
:10021000882339F48FEF91E060E071E00E94B10330
:1002200008958FEF91E068E171E00E94B1038FEFD4
:1002300091E061E371E00E94B10364E670E080E068
:1002400090E00E94F806DFCFCF93DF930E945B0718
:100250000E94F300CFE6D1E00E94C5002097E1F3B1
:100260000E946F01F9CF08951F920F920FB60F925F
:1002700011242F933F934F938F939F93EF93FF936B
:100280008091C00082FD1DC04091C6002091B70141
:100290003091B8012F5F3F4F2F7330708091B901BB
:1002A0009091BA012817390771F0E091B701F091E8
:1002B000B801E958FE4F40833093B8012093B7014D
:1002C00002C08091C600FF91EF919F918F914F9155
:1002D0003F912F910F900FBE0F901F901895E091B6
:1002E0000B02F0910C02E05CFF4F81919191208113
:1002F0003181805C9F4F821B930B60E470E00E9411
:10030000220A892B11F00E94330108951F920F9247
:100310000FB60F9211242F933F938F939F93EF93D8
:10032000FF932091FB013091FC018091FD019091A0
:10033000FE012817390731F48091C1008F7D809329
:10034000C10014C0E091FD01F091FE01E554FE4FA3
:1003500020818091FD019091FE0101968F73907034
:100360009093FE018093FD012093C600FF91EF91D1
:100370009F918F913F912F910F900FBE0F901F90E3
:100380001895AF92BF92DF92EF92FF920F931F9357
:10039000CF93DF93EC017A018B01DD24403081EEB5
:1003A000580780E0680780E0780711F0DD24D394D7
:1003B00091E0A92EB12CEC89FD89DD2069F0C50101
:1003C00008A002C0880F991F0A94E2F7808360E0BA
:1003D00079E08DE390E005C0108260E874E88EE17A
:1003E00090E0A80197010E94350A2150304040401A
:1003F0005040569547953795279580E1203038072E
:1004000020F0DD2011F0DD24D6CFE889F989308392
:10041000EA89FB89208319A2EE89FF89408121E0C6
:1004200030E0C9010C8C02C0880F991F0A94E2F7D2
:10043000482B4083EE89FF894081C9010D8C02C0A1
:10044000880F991F0A94E2F7482B4083EE89FF89B1
:100450004081C9010E8C02C0880F991F0A94E2F7EF
:10046000482B4083EE89FF8980810F8C02C0220FC8
:10047000331F0A94E2F7209528232083DF91CF9140
:100480001F910F91FF90EF90DF90BF90AF90089574
:10049000DC011C96ED91FC911D97E05CFF4F819172
:1004A000919120813181805C9F4F821B930B60E48E
:1004B00070E00E94220A0895DC011C96ED91FC91E7
:1004C0001D97E05CFF4F20813181E054F040DF0157
:1004D000AE5BBF4F8D919C9111972817390719F486
:1004E0002FEF3FEF07C08D919C91E80FF91F80819E
:1004F000282F30E0C9010895DC011C96ED91FC9194
:100500001D97E05CFF4F20813181E054F040DF0116
:10051000AE5BBF4F8D919C9111972817390719F445
:100520002FEF3FEF10C08D919C911197E80FF91FAD
:1005300020818D919C91119701968F7390701196E7
:100540009C938E9330E0C9010895DC0191968C91C3
:100550009197882339F05496ED91FC9155978081BD
:1005600086FFF9CF91961C920895CF93DF93EC010B
:10057000EE85FF85E05CFF4F20813181E054F04043
:100580002F5F3F4F2F733070DF01AE5BBF4F8D91F8
:100590009C91119728173907D1F3E05CFF4F8081B8
:1005A0009181E054F040E80FF91F6083EE85FF85EC
:1005B000E05CFF4F31832083EE89FF89208181E059
:1005C00090E00F8C02C0880F991F0A94E2F7282B45
:1005D000208381E089A3EC89FD8980818064808308
:1005E00081E090E0DF91CF91089510920202109285
:1005F000010288EE93E0A0E0B0E0809303029093C4
:100600000402A0930502B09306028FE491E0909358
:1006100000028093FF0187E791E090930C028093A2
:100620000B028BEB91E090930E0280930D0285EC10
:1006300090E09093100280930F0284EC90E09093EE
:1006400012028093110280EC90E090931402809348
:10065000130281EC90E0909316028093150282ECD5
:1006600090E0909318028093170286EC90E09093AC
:100670001A028093190284E080931B0283E0809326
:100680001C0287E080931D0285E080931E0281E0BA
:1006900080931F020895CF92DF92EF92FF920F9303
:1006A0001F93CF93DF937C016B018A01C0E0D0E000
:1006B0000FC0D6016D916D01D701ED91FC910190B4
:1006C000F081E02DC7010995C80FD91F01501040D6
:1006D0000115110571F7CE01DF91CF911F910F9197
:1006E000FF90EF90DF90CF900895EF92FF920F93DD
:1006F0001F938C01DC01ED91FC910190F081E02DC4
:100700006DE009957C01D801ED91FC910190F0819B
:10071000E02DC8016AE009959C012E0D3F1DC9011D
:100720001F910F91FF90EF900895CF93DF93EC010D
:100730006115710519F420E030E00FC0DB010D9068
:100740000020E9F71197A61BB70BE881F981028019
:10075000F381E02DAD0109959C01C901DF91CF9195
:100760000895EF92FF920F931F937C010E949503CF
:100770008C01C7010E947503080F191FC8011F9142
:100780000F91FF90EF9008950F931F938C01862F88
:10079000F801608B61E00E949607F801808961E0B2
:1007A0000E94D5071F910F910895FF920F931F93F9
:1007B000CF93DF93EC01162F042FF22E888960E08F
:1007C0000E94D50785E08EBD0DB407FEFDCF8EB526
:1007D0001EBD0DB407FEFDCF8EB50EBD0DB407FED8
:1007E000FDCF8EB5FEBC0DB407FEFDCF8EB588895A
:1007F00061E00E94D507DF91CF911F910F91FF908B
:100800000895615048E028E00E94D5030895EF92D2
:10081000FF920F931F93CF93DF93EC01162F042FBA
:10082000F52EE22E888960E00E94D50782E08EBD19
:100830000DB407FEFDCF8EB51EBD0DB407FEFDCF76
:100840008EB5802F9F2D9C01F90190E008C080811A
:100850008EBD0DB407FEFDCF8EB59F5F31969E1500
:10086000B0F3888961E00E94D507DF91CF911F9195
:100870000F91FF90EF900895EF92FF920F931F93C7
:10088000DF93CF9300D000D0CDB7DEB77C01F80165
:100890004130B1F40C83FB83C901AA27BB27382F51
:1008A000282F2C71220F220F220F3370230F286064
:1008B0002A8335E0969587953A95E1F789830EC0AE
:1008C000C80123E0969587952A95E1F78983802FC3
:1008D0008295880F807E8A831C821B82C701AE01AD
:1008E0004F5F5F4F24E00E9407040F900F900F901E
:1008F0000F90CF91DF911F910F91FF90EF9008958E
:100900000F931F93CF93DF93EC01162F042F888949
:1009100060E00E94D50782E08EBD0DB407FEFDCFDA
:100920008EB51EBD0DB407FEFDCF8EB50EBD0DB448
:1009300007FEFDCF8EB5888961E00E94D507DF9163
:10094000CF911F910F910895FF920F931F93CF9313
:10095000DF93EC01F62E6B5FAC014A5F5F4F2D8198
:100960000E9407048E85813019F48D8180648D8307
:100970006F2D6C5FCE014D810E94800409811A8128
:100980002B813C81CE016F2D48810E943C04DF9178
:10099000CF911F910F91FF9008951F93CF93DF93F5
:1009A000EC0110E3CE01612F40E00E948004105F53
:1009B000CE01612F40E00E948004105FCE01612FC4
:1009C00040E00E9480041F511E3361F7CE0160E6B3
:1009D00040E00E948004CE0160E740E00E94800475
:1009E000DF91CF911F9108950F931F93CF93DF93C2
:1009F000EC01673079F1683070F4633019F16430DC
:100A000028F46130D9F06230A9F416C06530F1F0F5
:100A10006630F0F419C06A3019F16B3028F4683090
:100A2000D9F0693039F41AC06C3009F16C30D8F063
:100A30006D3009F181E031C04FE101C04FE30FEFAC
:100A400017E81CC04FE0FBCF4FE00EC047E0F7CFE8
:100A500047E007C043E0F3CF43E003C043E008C0F2
:100A600041E00AEFEDCF41E401EF15E807C040E0B7
:100A700000EF16E803C040E000ED12E8CE016AE2A4
:100A80000E948004CE0169E2402F0E948004CE01C2
:100A900068E2412F0E94800480E0DF91CF911F9196
:100AA0000F9108951F93CF93DF93EC01162F888940
:100AB00060E00E94D50783E08EBD0DB407FEFDCF38
:100AC0008EB51EBD0DB407FEFDCF8EB51EBC0DB498
:100AD00007FEFDCF1EB5888961E00E94D507812FF2
:100AE000DF91CF911F9108958F929F92AF92BF9205
:100AF000CF92DF92FF920F931F93DF93CF9300D09B
:100B00000F92CDB7DEB74C016B01DE011196EBE51C
:100B1000F1E083E001900D928150E1F7F60110823F
:100B20008E010F5F1F4FA4E0AA2EB12CAC0EBD1E8C
:100B3000F801F080C4016F2D0E94520583FD05C0AD
:100B4000F394F601F08280E006C00F5F1F4F0A1594
:100B50001B0571F782E00F900F900F90CF91DF91FE
:100B60001F910F91FF90DF90CF90BF90AF909F901B
:100B70008F900895CF92DF92EF92FF920F931F9381
:100B8000DF93CF930F92CDB7DEB77C0100E010E08A
:100B90006E010894C11CD11CC701B6010E947405E6
:100BA0000F5F1F4F823021F00233110529F420C05E
:100BB0000233110589F71CC0C70169810E94A40492
:100BC000C70169810E94010400E010E00F5F1F4F20
:100BD000C70169810E94520583FD05C002331105DA
:100BE00029F080E006C00233110581F787E001C0DB
:100BF00086E00F90CF91DF911F910F91FF90EF90C2
:100C0000DF90CF900895EF92FF920F93CF93DF93F1
:100C1000EC01288349835A836B837C830D83DC0139
:100C200020E030E0F701E20FF31F808116968C93ED
:100C300016972F5F3F4F11962830310599F7CE0157
:100C40000E94BA05DF91CF910F91FF90EF90089528
:100C5000FF920F931F938C01F62E6FE040EE2F2D25
:100C60000E94D503C8016FE00E94520590E0807E8B
:100C70008F1191E0892F1F910F91FF900895CF93CD
:100C8000DF93EC01888960E00E94D50780EC8EBD7F
:100C90000DB407FEFDCF8EB5888961E00E94D507AF
:100CA0006AE070E080E090E00E94F806DF91CF916A
:100CB00008950F931F93CF93DF93EC01062F0E94AB
:100CC0003F06CE0160E80E942806182F882359F5B8
:100CD0006AE070E080E090E00E94F806CE01602FAC
:100CE0000E94F4048823F9F46AE070E080E090E068
:100CF0000E94F806CE010E94CD04CE016BE243E0D3
:100D00000E948004CE0160E644E624E00E94D50300
:100D1000CE0160E740E620E00E94D503CE0160E00E
:100D20000E942806182F6AE070E080E090E00E94A0
:100D3000F806812FDF91CF911F910F910895FF92B7
:100D40000F931F938C01F62E0E94C508C8016F2DCA
:100D50000E945906811181E01F910F91FF90089523
:100D60001F920F920FB60F9211242F933F938F93E0
:100D70009F93AF93BF938091250290912602A091FB
:100D80002702B0912802309129020196A11DB11DC0
:100D9000232F2D5F2D3720F02D570196A11DB11D5A
:100DA000209329028093250290932602A093270284
:100DB000B09328028091210290912202A0912302F7
:100DC000B09124020196A11DB11D80932102909340
:100DD0002202A0932302B0932402BF91AF919F916E
:100DE0008F913F912F910F900FBE0F901F901895EC
:100DF0009B01AC017FB7F89480912102909122026F
:100E0000A0912302B091240266B5A89B05C06F3F54
:100E100019F00196A11DB11D7FBFBA2FA92F982FE0
:100E20008827860F911DA11DB11D62E0880F991FB3
:100E3000AA1FBB1F6A95D1F7BC012DC0FFB7F8945C
:100E40008091210290912202A0912302B09124026C
:100E5000E6B5A89B05C0EF3F19F00196A11DB11D95
:100E6000FFBFBA2FA92F982F88278E0F911DA11D84
:100E7000B11DE2E0880F991FAA1FBB1FEA95D1F7A9
:100E8000861B970B885E9340C8F22150304040404B
:100E9000504068517C4F211531054105510571F6CF
:100EA0000895019739F0880F991F880F991F0297AD
:100EB0000197F1F70895789484B5826084BD84B574
:100EC000816084BD85B5826085BD85B5816085BD45
:100ED000EEE6F0E0808181608083E1E8F0E010825E
:100EE000808182608083808181608083E0E8F0E09F
:100EF000808181608083E1EBF0E080818460808389
:100F0000E0EBF0E0808181608083EAE7F0E08081BF
:100F1000846080838081826080838081816080831F
:100F20008081806880831092C1000895CF93DF9301
:100F3000482F50E0CA0186569F4FFC0134914A5712
:100F40005F4FFA018491882369F190E0880F991F1F
:100F5000FC01E859FF4FA591B491FC01EE58FF4FF9
:100F6000C591D491662351F42FB7F8948C91932FA7
:100F7000909589238C93888189230BC0623061F41A
:100F80002FB7F8948C91932F909589238C93888117
:100F9000832B88832FBF06C09FB7F8948C91832B37
:100FA0008C939FBFDF91CF910895482F50E0CA01E5
:100FB00082559F4FFC012491CA0186569F4FFC0128
:100FC00094914A575F4FFA013491332309F440C09A
:100FD000222351F1233071F0243028F42130A1F084
:100FE000223011F514C02630B1F02730C1F0243082
:100FF000D9F404C0809180008F7703C08091800075
:101000008F7D8093800010C084B58F7702C084B537
:101010008F7D84BD09C08091B0008F7703C080911F
:10102000B0008F7D8093B000E32FF0E0EE0FFF1F44
:10103000EE58FF4FA591B4912FB7F894662321F491
:101040008C919095892302C08C91892B8C932FBF12
:1010500008958F929F92AF92BF92CF92DF92EF92BC
:10106000FF920F931F93CF93DF93A82FB0E0CD0192
:1010700086569F4FFC018490AA57BF4FFD01849173
:10108000662311F4992401C0982C6FEFA62E6FEF00
:10109000B62E6FEFC62E6FE0D62EA222B322C42248
:1010A000D522682F70E0660F771F64587F4FEE24BB
:1010B000FF248701FB01A591B4910BC0EA14FB0446
:1010C0000C051D0509F44EC00894E11CF11C011D1E
:1010D000111D8C918821891589F30CC0EA14FB0439
:1010E0000C051D0509F43EC00894E11CF11C011D0E
:1010F000111D03C0FB01A591B4918C918821891524
:1011000069F720E030E040E050E0FB01C591D49168
:101110000FC0DA01C9018E0D9F1DA01FB11F8A15D6
:101120009B05AC05BD05F1F02F5F3F4F4F4F5F4F63
:1011300088818821891569F3CA01B90125E130E068
:1011400040E050E00E94030A9B01AC01205F3F4F4A
:101150004F4F5F4F84E056954795379527958A9571
:10116000D1F704C020E030E040E050E0B901CA010E
:10117000DF91CF911F910F91FF90EF90DF90CF9073
:10118000BF90AF909F908F9008958AE061E00E9499
:10119000D5078AE061E00E9496078CB580618CBD1E
:1011A0008CB580648CBD8DE061E00E9496078BE079
:1011B00061E00E94960708950CD0EBC0E3D040F0A8
:1011C000DAD030F021F45F3F19F0CCC0511115C1D5
:1011D000CFC0F0D098F39923C9F35523B1F3951BF1
:1011E000550BBB27AA2762177307840738F09F5F48
:1011F0005F4F220F331F441FAA1FA9F333D00E2EB7
:101200003AF0E0E830D091505040E695001CCAF723
:1012100029D0FE2F27D0660F771F881FBB1F2617E8
:1012200037074807AB07B0E809F0BB0B802DBF01BB
:10123000FF2793585F4F2AF09E3F510568F092C0F8
:10124000DCC05F3FECF3983EDCF3869577956795BD
:10125000B795F7959F5FC9F7880F911D969587956C
:1012600097F90895E1E0660F771F881FBB1F62178B
:1012700073078407BA0720F0621B730B840BBA0B49
:10128000EE1F88F7E095089504D06894B111B5C0B9
:10129000089598D088F09F5790F0B92F9927B751AB
:1012A000A0F0D1F0660F771F881F991F1AF0BA952A
:1012B000C9F712C0B13081F09FD0B1E008959CC051
:1012C000672F782F8827B85F39F0B93FCCF3869520
:1012D00077956795B395D9F73EF49095809570957D
:1012E00061957F4F8F4F9F4F0895E89409C097FBFA
:1012F0003EF490958095709561957F4F8F4F9F4FED
:101300009923A9F0F92F96E9BB279395F695879530
:1013100077956795B795F111F8CFFAF4BB0F11F4F3
:1013200060FF1BC06F5F7F4F8F4F9F4F16C088239A
:1013300011F096E911C0772321F09EE8872F762FD0
:1013400005C0662371F096E8862F70E060E02AF011
:101350009A95660F771F881FDAF7880F96958795FD
:1013600097F9089597F99F6780E870E060E0089525
:101370009FEF80EC089500240A94161617061806AD
:101380000906089500240A94121613061406050689
:101390000895092E0394000C11F4882352F0BB0F1A
:1013A00040F4BF2B11F460FF04C06F5F7F4F8F4F7D
:1013B0009F4F089557FD9058440F551F59F05F3FB8
:1013C00071F04795880F97FB991F61F09F3F79F067
:1013D00087950895121613061406551FF2CF4695E9
:1013E000F1DF08C0161617061806991FF1CF86956B
:1013F0007105610508940895E894BB27662777274F
:10140000CB0197F90895629FD001739FF001829FED
:10141000E00DF11D649FE00DF11D929FF00D839F83
:10142000F00D749FF00D659FF00D9927729FB00D20
:10143000E11DF91F639FB00DE11DF91FBD01CF0133
:101440001124089597FB092E07260AD077FD04D0B2
:1014500049D006D000201AF4709561957F4F089509
:10146000F6F7909581959F4F0895A1E21A2EAA1B39
:10147000BB1BFD010DC0AA1FBB1FEE1FFF1FA21744
:10148000B307E407F50720F0A21BB30BE40BF50B41
:10149000661F771F881F991F1A9469F760957095CA
:1014A000809590959B01AC01BD01CF01089597FBFC
:1014B000092E05260ED057FD04D0D7DF0AD0001C18
:1014C00038F450954095309521953F4F4F4F5F4FE1
:1014D0000895F6F790958095709561957F4F8F4FA1
:1014E0009F4F0895AA1BBB1B51E107C0AA1FBB1F3A
:1014F000A617B70710F0A61BB70B881F991F5A95A0
:10150000A9F780959095BC01CD010895EE0FFF1FBE
:0C1510000590F491E02D0994F894FFCFB1
:10151C0043414E2042555320536869656C642069E1
:10152C006E6974206F6B210043414E20425553204D
:10153C00536869656C6420696E6974206661696CB6
:10154C0000496E69742043414E2042555320536824
:10155C0069656C6420616761696E0000000000B50C
:0E156C00024B0348027C025C02A50230405094
:00000001FF
